{
  "address": "0x5FbDB2315678afecb367f032d93F642f64180aa3",
  "abi": [
    {
      "inputs": [
        {
          "internalType": "address",
          "name": "nftAddress",
          "type": "address"
        },
        {
          "internalType": "uint256",
          "name": "tokenId",
          "type": "uint256"
        }
      ],
      "name": "NftMarketplace__AlreadyListed",
      "type": "error"
    },
    {
      "inputs": [],
      "name": "NftMarketplace__NoProceeds",
      "type": "error"
    },
    {
      "inputs": [],
      "name": "NftMarketplace__NotApprovedForMarketplace",
      "type": "error"
    },
    {
      "inputs": [
        {
          "internalType": "address",
          "name": "nftAddress",
          "type": "address"
        },
        {
          "internalType": "uint256",
          "name": "tokenId",
          "type": "uint256"
        }
      ],
      "name": "NftMarketplace__NotListed",
      "type": "error"
    },
    {
      "inputs": [],
      "name": "NftMarketplace__NotOwner",
      "type": "error"
    },
    {
      "inputs": [],
      "name": "NftMarketplace__PriceMustBeAboveZero",
      "type": "error"
    },
    {
      "inputs": [
        {
          "internalType": "address",
          "name": "nftAddress",
          "type": "address"
        },
        {
          "internalType": "uint256",
          "name": "tokenId",
          "type": "uint256"
        },
        {
          "internalType": "uint256",
          "name": "price",
          "type": "uint256"
        }
      ],
      "name": "NftMarketplace__PriceNotMet",
      "type": "error"
    },
    {
      "inputs": [],
      "name": "NftMarketplace__TheOwner",
      "type": "error"
    },
    {
      "anonymous": false,
      "inputs": [
        {
          "indexed": true,
          "internalType": "address",
          "name": "buyer",
          "type": "address"
        },
        {
          "indexed": true,
          "internalType": "address",
          "name": "nftAddress",
          "type": "address"
        },
        {
          "indexed": true,
          "internalType": "uint256",
          "name": "tokenId",
          "type": "uint256"
        },
        {
          "indexed": false,
          "internalType": "uint256",
          "name": "price",
          "type": "uint256"
        }
      ],
      "name": "ItemBought",
      "type": "event"
    },
    {
      "anonymous": false,
      "inputs": [
        {
          "indexed": true,
          "internalType": "address",
          "name": "seller",
          "type": "address"
        },
        {
          "indexed": true,
          "internalType": "address",
          "name": "nftAddress",
          "type": "address"
        },
        {
          "indexed": true,
          "internalType": "uint256",
          "name": "tokenId",
          "type": "uint256"
        }
      ],
      "name": "ItemCanceled",
      "type": "event"
    },
    {
      "anonymous": false,
      "inputs": [
        {
          "indexed": true,
          "internalType": "address",
          "name": "seller",
          "type": "address"
        },
        {
          "indexed": true,
          "internalType": "address",
          "name": "nftAddress",
          "type": "address"
        },
        {
          "indexed": true,
          "internalType": "uint256",
          "name": "tokenId",
          "type": "uint256"
        },
        {
          "indexed": false,
          "internalType": "uint256",
          "name": "price",
          "type": "uint256"
        }
      ],
      "name": "ItemListed",
      "type": "event"
    },
    {
      "inputs": [
        {
          "internalType": "address",
          "name": "nftAddress",
          "type": "address"
        },
        {
          "internalType": "uint256",
          "name": "tokenId",
          "type": "uint256"
        }
      ],
      "name": "buyItem",
      "outputs": [],
      "stateMutability": "payable",
      "type": "function"
    },
    {
      "inputs": [
        {
          "internalType": "address",
          "name": "nftAddress",
          "type": "address"
        },
        {
          "internalType": "uint256",
          "name": "tokenId",
          "type": "uint256"
        }
      ],
      "name": "cancelListing",
      "outputs": [],
      "stateMutability": "nonpayable",
      "type": "function"
    },
    {
      "inputs": [],
      "name": "getCompleteListing",
      "outputs": [
        {
          "components": [
            {
              "internalType": "uint256",
              "name": "price",
              "type": "uint256"
            },
            {
              "internalType": "address",
              "name": "seller",
              "type": "address"
            },
            {
              "internalType": "address",
              "name": "nftAddress",
              "type": "address"
            },
            {
              "internalType": "uint256",
              "name": "tokenId",
              "type": "uint256"
            }
          ],
          "internalType": "struct NftMarketplace.CompleteListing[]",
          "name": "",
          "type": "tuple[]"
        }
      ],
      "stateMutability": "view",
      "type": "function"
    },
    {
      "inputs": [
        {
          "internalType": "address",
          "name": "nftAddress",
          "type": "address"
        },
        {
          "internalType": "uint256",
          "name": "tokenId",
          "type": "uint256"
        }
      ],
      "name": "getListing",
      "outputs": [
        {
          "components": [
            {
              "internalType": "uint256",
              "name": "price",
              "type": "uint256"
            },
            {
              "internalType": "address",
              "name": "seller",
              "type": "address"
            }
          ],
          "internalType": "struct NftMarketplace.Listing",
          "name": "",
          "type": "tuple"
        }
      ],
      "stateMutability": "view",
      "type": "function"
    },
    {
      "inputs": [
        {
          "internalType": "address",
          "name": "seller",
          "type": "address"
        }
      ],
      "name": "getProceeds",
      "outputs": [
        {
          "internalType": "uint256",
          "name": "",
          "type": "uint256"
        }
      ],
      "stateMutability": "view",
      "type": "function"
    },
    {
      "inputs": [
        {
          "internalType": "address",
          "name": "nftAddress",
          "type": "address"
        },
        {
          "internalType": "uint256",
          "name": "tokenId",
          "type": "uint256"
        },
        {
          "internalType": "uint256",
          "name": "price",
          "type": "uint256"
        }
      ],
      "name": "listItem",
      "outputs": [],
      "stateMutability": "nonpayable",
      "type": "function"
    },
    {
      "inputs": [
        {
          "internalType": "address",
          "name": "nftAddress",
          "type": "address"
        },
        {
          "internalType": "uint256",
          "name": "tokenId",
          "type": "uint256"
        }
      ],
      "name": "removeCompleteListing",
      "outputs": [],
      "stateMutability": "nonpayable",
      "type": "function"
    },
    {
      "inputs": [
        {
          "internalType": "address",
          "name": "nftAddress",
          "type": "address"
        },
        {
          "internalType": "uint256",
          "name": "tokenId",
          "type": "uint256"
        },
        {
          "internalType": "uint256",
          "name": "newPrice",
          "type": "uint256"
        }
      ],
      "name": "updateCompleteListing",
      "outputs": [],
      "stateMutability": "nonpayable",
      "type": "function"
    },
    {
      "inputs": [
        {
          "internalType": "address",
          "name": "nftAddress",
          "type": "address"
        },
        {
          "internalType": "uint256",
          "name": "tokenId",
          "type": "uint256"
        },
        {
          "internalType": "uint256",
          "name": "newPrice",
          "type": "uint256"
        }
      ],
      "name": "updateListing",
      "outputs": [],
      "stateMutability": "nonpayable",
      "type": "function"
    },
    {
      "inputs": [],
      "name": "withdrawProceeds",
      "outputs": [],
      "stateMutability": "nonpayable",
      "type": "function"
    }
  ],
  "transactionHash": "0x132471e0d92fa55a0c6d22ae943e7defeda09fb2f81c2dde45f1d3e21a50f417",
  "args": [],
  "numDeployments": 1,
  "solcInputHash": "0a67fa7a77fcd77e81b8617e203cffa9",
  "bytecode": "0x608060405234801561001057600080fd5b5060016000819055506126fd806100286000396000f3fe6080604052600436106100915760003560e01c806389bfd38f1161005957806389bfd38f1461018d5780639038e693146101b65780639f37092a146101cd578063b2ddee06146101e9578063f772adf11461021257610091565b806311040e6d1461009657806330cfeda9146100bf5780633d5d7b6d146100fc5780635207ec7d1461012757806388700d1c14610150575b600080fd5b3480156100a257600080fd5b506100bd60048036038101906100b891906120d8565b61023b565b005b3480156100cb57600080fd5b506100e660048036038101906100e19190612118565b6105a5565b6040516100f39190612154565b60405180910390f35b34801561010857600080fd5b506101116105ee565b60405161011e9190612291565b60405180910390f35b34801561013357600080fd5b5061014e600480360381019061014991906122b3565b61070d565b005b34801561015c57600080fd5b50610177600480360381019061017291906120d8565b61089f565b6040516101849190612335565b60405180910390f35b34801561019957600080fd5b506101b460048036038101906101af91906122b3565b61096a565b005b3480156101c257600080fd5b506101cb611008565b005b6101e760048036038101906101e291906120d8565b61117b565b005b3480156101f557600080fd5b50610210600480360381019061020b91906120d8565b6117b2565b005b34801561021e57600080fd5b50610239600480360381019061023491906122b3565b611ba7565b005b60005b60018054905081101561059f5760006001828154811061026157610260612350565b5b9060005260206000209060040201604051806080016040529081600082015481526020016001820160009054906101000a900473ffffffffffffffffffffffffffffffffffffffff1673ffffffffffffffffffffffffffffffffffffffff1673ffffffffffffffffffffffffffffffffffffffff1681526020016002820160009054906101000a900473ffffffffffffffffffffffffffffffffffffffff1673ffffffffffffffffffffffffffffffffffffffff1673ffffffffffffffffffffffffffffffffffffffff16815260200160038201548152505090508373ffffffffffffffffffffffffffffffffffffffff16816040015173ffffffffffffffffffffffffffffffffffffffff1614801561037e5750828160600151145b1561058b5760018054905082106103965750506105a1565b60008290505b600180805490506103ad91906123ae565b8110156104fb57600180826103c291906123e2565b815481106103d3576103d2612350565b5b9060005260206000209060040201600182815481106103f5576103f4612350565b5b9060005260206000209060040201600082015481600001556001820160009054906101000a900473ffffffffffffffffffffffffffffffffffffffff168160010160006101000a81548173ffffffffffffffffffffffffffffffffffffffff021916908373ffffffffffffffffffffffffffffffffffffffff1602179055506002820160009054906101000a900473ffffffffffffffffffffffffffffffffffffffff168160020160006101000a81548173ffffffffffffffffffffffffffffffffffffffff021916908373ffffffffffffffffffffffffffffffffffffffff1602179055506003820154816003015590505080806104f390612438565b91505061039c565b50600180548061050e5761050d612481565b5b60019003818190600052602060002090600402016000808201600090556001820160006101000a81549073ffffffffffffffffffffffffffffffffffffffff02191690556002820160006101000a81549073ffffffffffffffffffffffffffffffffffffffff02191690556003820160009055505090555061059f565b50808061059790612438565b91505061023e565b505b5050565b6000600360008373ffffffffffffffffffffffffffffffffffffffff1673ffffffffffffffffffffffffffffffffffffffff168152602001908152602001600020549050919050565b60606001805480602002602001604051908101604052809291908181526020016000905b828210156107045783829060005260206000209060040201604051806080016040529081600082015481526020016001820160009054906101000a900473ffffffffffffffffffffffffffffffffffffffff1673ffffffffffffffffffffffffffffffffffffffff1673ffffffffffffffffffffffffffffffffffffffff1681526020016002820160009054906101000a900473ffffffffffffffffffffffffffffffffffffffff1673ffffffffffffffffffffffffffffffffffffffff1673ffffffffffffffffffffffffffffffffffffffff16815260200160038201548152505081526020019060010190610612565b50505050905090565b60005b6001805490508110156108995760006001828154811061073357610732612350565b5b9060005260206000209060040201604051806080016040529081600082015481526020016001820160009054906101000a900473ffffffffffffffffffffffffffffffffffffffff1673ffffffffffffffffffffffffffffffffffffffff1673ffffffffffffffffffffffffffffffffffffffff1681526020016002820160009054906101000a900473ffffffffffffffffffffffffffffffffffffffff1673ffffffffffffffffffffffffffffffffffffffff1673ffffffffffffffffffffffffffffffffffffffff16815260200160038201548152505090508473ffffffffffffffffffffffffffffffffffffffff16816040015173ffffffffffffffffffffffffffffffffffffffff161480156108505750838160600151145b1561088557826001838154811061086a57610869612350565b5b90600052602060002090600402016000018190555050610899565b50808061089190612438565b915050610710565b50505050565b6108a761200f565b600260008473ffffffffffffffffffffffffffffffffffffffff1673ffffffffffffffffffffffffffffffffffffffff1681526020019081526020016000206000838152602001908152602001600020604051806040016040529081600082015481526020016001820160009054906101000a900473ffffffffffffffffffffffffffffffffffffffff1673ffffffffffffffffffffffffffffffffffffffff1673ffffffffffffffffffffffffffffffffffffffff1681525050905092915050565b8282600080600260008573ffffffffffffffffffffffffffffffffffffffff1673ffffffffffffffffffffffffffffffffffffffff1681526020019081526020016000206000848152602001908152602001600020604051806040016040529081600082015481526020016001820160009054906101000a900473ffffffffffffffffffffffffffffffffffffffff1673ffffffffffffffffffffffffffffffffffffffff1673ffffffffffffffffffffffffffffffffffffffff1681525050905060008160000151118015610a44575060001515821515145b15610a885783836040517fc2f0d709000000000000000000000000000000000000000000000000000000008152600401610a7f9291906124bf565b60405180910390fd5b6000816000015111158015610aa1575060011515821515145b15610ae55783836040517f6d350f22000000000000000000000000000000000000000000000000000000008152600401610adc9291906124bf565b60405180910390fd5b8686336001600084905060008173ffffffffffffffffffffffffffffffffffffffff16636352211e866040518263ffffffff1660e01b8152600401610b2a9190612154565b60206040518083038186803b158015610b4257600080fd5b505afa158015610b56573d6000803e3d6000fd5b505050506040513d601f19601f82011682018060405250810190610b7a91906124fd565b90508373ffffffffffffffffffffffffffffffffffffffff168173ffffffffffffffffffffffffffffffffffffffff1614158015610bbc575060011515831515145b15610bf3576040517f94953b6000000000000000000000000000000000000000000000000000000000815260040160405180910390fd5b8373ffffffffffffffffffffffffffffffffffffffff168173ffffffffffffffffffffffffffffffffffffffff16148015610c32575060001515831515145b15610c69576040517f03a2647e00000000000000000000000000000000000000000000000000000000815260040160405180910390fd5b60008b11610ca3576040517f096d7ecf00000000000000000000000000000000000000000000000000000000815260040160405180910390fd5b60008d90503073ffffffffffffffffffffffffffffffffffffffff168173ffffffffffffffffffffffffffffffffffffffff1663081812fc8f6040518263ffffffff1660e01b8152600401610cf89190612154565b60206040518083038186803b158015610d1057600080fd5b505afa158015610d24573d6000803e3d6000fd5b505050506040513d601f19601f82011682018060405250810190610d4891906124fd565b73ffffffffffffffffffffffffffffffffffffffff1614610d95576040517f13e7d28d00000000000000000000000000000000000000000000000000000000815260040160405180910390fd5b60008e905060008e905060008e905060405180604001604052808281526020013373ffffffffffffffffffffffffffffffffffffffff16815250600260008573ffffffffffffffffffffffffffffffffffffffff1673ffffffffffffffffffffffffffffffffffffffff16815260200190815260200160002060008481526020019081526020016000206000820151816000015560208201518160010160006101000a81548173ffffffffffffffffffffffffffffffffffffffff021916908373ffffffffffffffffffffffffffffffffffffffff160217905550905050600160405180608001604052808381526020013373ffffffffffffffffffffffffffffffffffffffff1681526020018573ffffffffffffffffffffffffffffffffffffffff1681526020018481525090806001815401808255809150506001900390600052602060002090600402016000909190919091506000820151816000015560208201518160010160006101000a81548173ffffffffffffffffffffffffffffffffffffffff021916908373ffffffffffffffffffffffffffffffffffffffff16021790555060408201518160020160006101000a81548173ffffffffffffffffffffffffffffffffffffffff021916908373ffffffffffffffffffffffffffffffffffffffff160217905550606082015181600301555050818373ffffffffffffffffffffffffffffffffffffffff163373ffffffffffffffffffffffffffffffffffffffff167fd547e933094f12a9159076970143ebe73234e64480317844b0dcb36117116de484604051610fed9190612154565b60405180910390a45050505050505050505050505050505050565b6000600360003373ffffffffffffffffffffffffffffffffffffffff1673ffffffffffffffffffffffffffffffffffffffff16815260200190815260200160002054905060008111611086576040517f668a7c4200000000000000000000000000000000000000000000000000000000815260040160405180910390fd5b6000600360003373ffffffffffffffffffffffffffffffffffffffff1673ffffffffffffffffffffffffffffffffffffffff1681526020019081526020016000208190555060003373ffffffffffffffffffffffffffffffffffffffff16826040516110f19061255b565b60006040518083038185875af1925050503d806000811461112e576040519150601f19603f3d011682016040523d82523d6000602084013e611133565b606091505b5050905080611177576040517f08c379a000000000000000000000000000000000000000000000000000000000815260040161116e906125cd565b60405180910390fd5b5050565b600260005414156111c1576040517f08c379a00000000000000000000000000000000000000000000000000000000081526004016111b890612639565b60405180910390fd5b6002600081905550818160016000600260008573ffffffffffffffffffffffffffffffffffffffff1673ffffffffffffffffffffffffffffffffffffffff1681526020019081526020016000206000848152602001908152602001600020604051806040016040529081600082015481526020016001820160009054906101000a900473ffffffffffffffffffffffffffffffffffffffff1673ffffffffffffffffffffffffffffffffffffffff1673ffffffffffffffffffffffffffffffffffffffff16815250509050600081600001511180156112a4575060001515821515145b156112e85783836040517fc2f0d7090000000000000000000000000000000000000000000000000000000081526004016112df9291906124bf565b60405180910390fd5b6000816000015111158015611301575060011515821515145b156113455783836040517f6d350f2200000000000000000000000000000000000000000000000000000000815260040161133c9291906124bf565b60405180910390fd5b85853360008084905060008173ffffffffffffffffffffffffffffffffffffffff16636352211e866040518263ffffffff1660e01b81526004016113899190612154565b60206040518083038186803b1580156113a157600080fd5b505afa1580156113b5573d6000803e3d6000fd5b505050506040513d601f19601f820116820180604052508101906113d991906124fd565b90508373ffffffffffffffffffffffffffffffffffffffff168173ffffffffffffffffffffffffffffffffffffffff161415801561141b575060011515831515145b15611452576040517f94953b6000000000000000000000000000000000000000000000000000000000815260040160405180910390fd5b8373ffffffffffffffffffffffffffffffffffffffff168173ffffffffffffffffffffffffffffffffffffffff16148015611491575060001515831515145b156114c8576040517f03a2647e00000000000000000000000000000000000000000000000000000000815260040160405180910390fd5b6000600260008e73ffffffffffffffffffffffffffffffffffffffff1673ffffffffffffffffffffffffffffffffffffffff16815260200190815260200160002060008d8152602001908152602001600020604051806040016040529081600082015481526020016001820160009054906101000a900473ffffffffffffffffffffffffffffffffffffffff1673ffffffffffffffffffffffffffffffffffffffff1673ffffffffffffffffffffffffffffffffffffffff1681525050905080600001513410156115d8578c8c82600001516040517f817ce9f10000000000000000000000000000000000000000000000000000000081526004016115cf93929190612659565b60405180910390fd5b3460036000836020015173ffffffffffffffffffffffffffffffffffffffff1673ffffffffffffffffffffffffffffffffffffffff168152602001908152602001600020600082825461162b91906123e2565b92505081905550600260008e73ffffffffffffffffffffffffffffffffffffffff1673ffffffffffffffffffffffffffffffffffffffff16815260200190815260200160002060008d81526020019081526020016000206000808201600090556001820160006101000a81549073ffffffffffffffffffffffffffffffffffffffff021916905550506116be8d8d61023b565b8c73ffffffffffffffffffffffffffffffffffffffff166342842e0e8260200151338f6040518463ffffffff1660e01b81526004016116ff93929190612690565b600060405180830381600087803b15801561171957600080fd5b505af115801561172d573d6000803e3d6000fd5b505050508b8d73ffffffffffffffffffffffffffffffffffffffff163373ffffffffffffffffffffffffffffffffffffffff167f263223b1dd81e51054a4e6f791d45a4a1ddb4aadcd93a2dfd892615c3fdac18784600001516040516117939190612154565b60405180910390a4505050505050505050505060016000819055505050565b818160016000600260008573ffffffffffffffffffffffffffffffffffffffff1673ffffffffffffffffffffffffffffffffffffffff1681526020019081526020016000206000848152602001908152602001600020604051806040016040529081600082015481526020016001820160009054906101000a900473ffffffffffffffffffffffffffffffffffffffff1673ffffffffffffffffffffffffffffffffffffffff1673ffffffffffffffffffffffffffffffffffffffff168152505090506000816000015111801561188d575060001515821515145b156118d15783836040517fc2f0d7090000000000000000000000000000000000000000000000000000000081526004016118c89291906124bf565b60405180910390fd5b60008160000151111580156118ea575060011515821515145b1561192e5783836040517f6d350f220000000000000000000000000000000000000000000000000000000081526004016119259291906124bf565b60405180910390fd5b8585336001600084905060008173ffffffffffffffffffffffffffffffffffffffff16636352211e866040518263ffffffff1660e01b81526004016119739190612154565b60206040518083038186803b15801561198b57600080fd5b505afa15801561199f573d6000803e3d6000fd5b505050506040513d601f19601f820116820180604052508101906119c391906124fd565b90508373ffffffffffffffffffffffffffffffffffffffff168173ffffffffffffffffffffffffffffffffffffffff1614158015611a05575060011515831515145b15611a3c576040517f94953b6000000000000000000000000000000000000000000000000000000000815260040160405180910390fd5b8373ffffffffffffffffffffffffffffffffffffffff168173ffffffffffffffffffffffffffffffffffffffff16148015611a7b575060001515831515145b15611ab2576040517f03a2647e00000000000000000000000000000000000000000000000000000000815260040160405180910390fd5b600260008d73ffffffffffffffffffffffffffffffffffffffff1673ffffffffffffffffffffffffffffffffffffffff16815260200190815260200160002060008c81526020019081526020016000206000808201600090556001820160006101000a81549073ffffffffffffffffffffffffffffffffffffffff02191690555050611b3e8c8c61023b565b8a8c73ffffffffffffffffffffffffffffffffffffffff163373ffffffffffffffffffffffffffffffffffffffff167f9ba1a3cb55ce8d63d072a886f94d2a744f50cddf82128e897d0661f5ec62315860405160405180910390a4505050505050505050505050565b60026000541415611bed576040517f08c379a0000000000000000000000000000000000000000000000000000000008152600401611be490612639565b60405180910390fd5b6002600081905550828260016000600260008573ffffffffffffffffffffffffffffffffffffffff1673ffffffffffffffffffffffffffffffffffffffff1681526020019081526020016000206000848152602001908152602001600020604051806040016040529081600082015481526020016001820160009054906101000a900473ffffffffffffffffffffffffffffffffffffffff1673ffffffffffffffffffffffffffffffffffffffff1673ffffffffffffffffffffffffffffffffffffffff1681525050905060008160000151118015611cd0575060001515821515145b15611d145783836040517fc2f0d709000000000000000000000000000000000000000000000000000000008152600401611d0b9291906124bf565b60405180910390fd5b6000816000015111158015611d2d575060011515821515145b15611d715783836040517f6d350f22000000000000000000000000000000000000000000000000000000008152600401611d689291906124bf565b60405180910390fd5b8686336001600084905060008173ffffffffffffffffffffffffffffffffffffffff16636352211e866040518263ffffffff1660e01b8152600401611db69190612154565b60206040518083038186803b158015611dce57600080fd5b505afa158015611de2573d6000803e3d6000fd5b505050506040513d601f19601f82011682018060405250810190611e0691906124fd565b90508373ffffffffffffffffffffffffffffffffffffffff168173ffffffffffffffffffffffffffffffffffffffff1614158015611e48575060011515831515145b15611e7f576040517f94953b6000000000000000000000000000000000000000000000000000000000815260040160405180910390fd5b8373ffffffffffffffffffffffffffffffffffffffff168173ffffffffffffffffffffffffffffffffffffffff16148015611ebe575060001515831515145b15611ef5576040517f03a2647e00000000000000000000000000000000000000000000000000000000815260040160405180910390fd5b60008b11611f2f576040517f096d7ecf00000000000000000000000000000000000000000000000000000000815260040160405180910390fd5b8a600260008f73ffffffffffffffffffffffffffffffffffffffff1673ffffffffffffffffffffffffffffffffffffffff16815260200190815260200160002060008e815260200190815260200160002060000181905550611f928d8d8d61070d565b8b8d73ffffffffffffffffffffffffffffffffffffffff163373ffffffffffffffffffffffffffffffffffffffff167fd547e933094f12a9159076970143ebe73234e64480317844b0dcb36117116de48e604051611ff09190612154565b60405180910390a4505050505050505050506001600081905550505050565b604051806040016040528060008152602001600073ffffffffffffffffffffffffffffffffffffffff1681525090565b600080fd5b600073ffffffffffffffffffffffffffffffffffffffff82169050919050565b600061206f82612044565b9050919050565b61207f81612064565b811461208a57600080fd5b50565b60008135905061209c81612076565b92915050565b6000819050919050565b6120b5816120a2565b81146120c057600080fd5b50565b6000813590506120d2816120ac565b92915050565b600080604083850312156120ef576120ee61203f565b5b60006120fd8582860161208d565b925050602061210e858286016120c3565b9150509250929050565b60006020828403121561212e5761212d61203f565b5b600061213c8482850161208d565b91505092915050565b61214e816120a2565b82525050565b60006020820190506121696000830184612145565b92915050565b600081519050919050565b600082825260208201905092915050565b6000819050602082019050919050565b6121a4816120a2565b82525050565b6121b381612064565b82525050565b6080820160008201516121cf600085018261219b565b5060208201516121e260208501826121aa565b5060408201516121f560408501826121aa565b506060820151612208606085018261219b565b50505050565b600061221a83836121b9565b60808301905092915050565b6000602082019050919050565b600061223e8261216f565b612248818561217a565b93506122538361218b565b8060005b8381101561228457815161226b888261220e565b975061227683612226565b925050600181019050612257565b5085935050505092915050565b600060208201905081810360008301526122ab8184612233565b905092915050565b6000806000606084860312156122cc576122cb61203f565b5b60006122da8682870161208d565b93505060206122eb868287016120c3565b92505060406122fc868287016120c3565b9150509250925092565b60408201600082015161231c600085018261219b565b50602082015161232f60208501826121aa565b50505050565b600060408201905061234a6000830184612306565b92915050565b7f4e487b7100000000000000000000000000000000000000000000000000000000600052603260045260246000fd5b7f4e487b7100000000000000000000000000000000000000000000000000000000600052601160045260246000fd5b60006123b9826120a2565b91506123c4836120a2565b9250828210156123d7576123d661237f565b5b828203905092915050565b60006123ed826120a2565b91506123f8836120a2565b9250827fffffffffffffffffffffffffffffffffffffffffffffffffffffffffffffffff0382111561242d5761242c61237f565b5b828201905092915050565b6000612443826120a2565b91507fffffffffffffffffffffffffffffffffffffffffffffffffffffffffffffffff8214156124765761247561237f565b5b600182019050919050565b7f4e487b7100000000000000000000000000000000000000000000000000000000600052603160045260246000fd5b6124b981612064565b82525050565b60006040820190506124d460008301856124b0565b6124e16020830184612145565b9392505050565b6000815190506124f781612076565b92915050565b6000602082840312156125135761251261203f565b5b6000612521848285016124e8565b91505092915050565b600081905092915050565b50565b600061254560008361252a565b915061255082612535565b600082019050919050565b600061256682612538565b9150819050919050565b600082825260208201905092915050565b7f5472616e73666572206661696c65642100000000000000000000000000000000600082015250565b60006125b7601083612570565b91506125c282612581565b602082019050919050565b600060208201905081810360008301526125e6816125aa565b9050919050565b7f5265656e7472616e637947756172643a207265656e7472616e742063616c6c00600082015250565b6000612623601f83612570565b915061262e826125ed565b602082019050919050565b6000602082019050818103600083015261265281612616565b9050919050565b600060608201905061266e60008301866124b0565b61267b6020830185612145565b6126886040830184612145565b949350505050565b60006060820190506126a560008301866124b0565b6126b260208301856124b0565b6126bf6040830184612145565b94935050505056fea264697066735822122041ca31d6cbddb052c173823a87f14a692608cbd706fc4c677585374c193f0fb164736f6c63430008090033",
  "devdoc": {
    "kind": "dev",
    "methods": {},
    "version": 1
  },
  "userdoc": {
    "kind": "user",
    "methods": {},
    "version": 1
  },
  "storageLayout": {
    "storage": [
      {
        "astId": 10,
        "contract": "contracts/NftMarketplace.sol:NftMarketplace",
        "label": "_status",
        "offset": 0,
        "slot": "0",
        "type": "t_uint256"
      },
      {
        "astId": 1700,
        "contract": "contracts/NftMarketplace.sol:NftMarketplace",
        "label": "s_completeListing",
        "offset": 0,
        "slot": "1",
        "type": "t_array(t_struct(CompleteListing)1696_storage)dyn_storage"
      },
      {
        "astId": 1707,
        "contract": "contracts/NftMarketplace.sol:NftMarketplace",
        "label": "s_listings",
        "offset": 0,
        "slot": "2",
        "type": "t_mapping(t_address,t_mapping(t_uint256,t_struct(Listing)1687_storage))"
      },
      {
        "astId": 1711,
        "contract": "contracts/NftMarketplace.sol:NftMarketplace",
        "label": "s_proceeds",
        "offset": 0,
        "slot": "3",
        "type": "t_mapping(t_address,t_uint256)"
      }
    ],
    "types": {
      "t_address": {
        "encoding": "inplace",
        "label": "address",
        "numberOfBytes": "20"
      },
      "t_array(t_struct(CompleteListing)1696_storage)dyn_storage": {
        "base": "t_struct(CompleteListing)1696_storage",
        "encoding": "dynamic_array",
        "label": "struct NftMarketplace.CompleteListing[]",
        "numberOfBytes": "32"
      },
      "t_mapping(t_address,t_mapping(t_uint256,t_struct(Listing)1687_storage))": {
        "encoding": "mapping",
        "key": "t_address",
        "label": "mapping(address => mapping(uint256 => struct NftMarketplace.Listing))",
        "numberOfBytes": "32",
        "value": "t_mapping(t_uint256,t_struct(Listing)1687_storage)"
      },
      "t_mapping(t_address,t_uint256)": {
        "encoding": "mapping",
        "key": "t_address",
        "label": "mapping(address => uint256)",
        "numberOfBytes": "32",
        "value": "t_uint256"
      },
      "t_mapping(t_uint256,t_struct(Listing)1687_storage)": {
        "encoding": "mapping",
        "key": "t_uint256",
        "label": "mapping(uint256 => struct NftMarketplace.Listing)",
        "numberOfBytes": "32",
        "value": "t_struct(Listing)1687_storage"
      },
      "t_struct(CompleteListing)1696_storage": {
        "encoding": "inplace",
        "label": "struct NftMarketplace.CompleteListing",
        "members": [
          {
            "astId": 1689,
            "contract": "contracts/NftMarketplace.sol:NftMarketplace",
            "label": "price",
            "offset": 0,
            "slot": "0",
            "type": "t_uint256"
          },
          {
            "astId": 1691,
            "contract": "contracts/NftMarketplace.sol:NftMarketplace",
            "label": "seller",
            "offset": 0,
            "slot": "1",
            "type": "t_address"
          },
          {
            "astId": 1693,
            "contract": "contracts/NftMarketplace.sol:NftMarketplace",
            "label": "nftAddress",
            "offset": 0,
            "slot": "2",
            "type": "t_address"
          },
          {
            "astId": 1695,
            "contract": "contracts/NftMarketplace.sol:NftMarketplace",
            "label": "tokenId",
            "offset": 0,
            "slot": "3",
            "type": "t_uint256"
          }
        ],
        "numberOfBytes": "128"
      },
      "t_struct(Listing)1687_storage": {
        "encoding": "inplace",
        "label": "struct NftMarketplace.Listing",
        "members": [
          {
            "astId": 1684,
            "contract": "contracts/NftMarketplace.sol:NftMarketplace",
            "label": "price",
            "offset": 0,
            "slot": "0",
            "type": "t_uint256"
          },
          {
            "astId": 1686,
            "contract": "contracts/NftMarketplace.sol:NftMarketplace",
            "label": "seller",
            "offset": 0,
            "slot": "1",
            "type": "t_address"
          }
        ],
        "numberOfBytes": "64"
      },
      "t_uint256": {
        "encoding": "inplace",
        "label": "uint256",
        "numberOfBytes": "32"
      }
    }
  }
}