{
  "address": "0x4EbbF9a3486a5Ac62FE60D86480D01c81d9b74a6",
  "abi": [
    {
      "inputs": [
        {
          "internalType": "address",
          "name": "nftAddress",
          "type": "address"
        },
        {
          "internalType": "uint256",
          "name": "tokenId",
          "type": "uint256"
        }
      ],
      "name": "NftMarketplace__AlreadyListed",
      "type": "error"
    },
    {
      "inputs": [],
      "name": "NftMarketplace__NoProceeds",
      "type": "error"
    },
    {
      "inputs": [],
      "name": "NftMarketplace__NotApprovedForMarketplace",
      "type": "error"
    },
    {
      "inputs": [
        {
          "internalType": "address",
          "name": "nftAddress",
          "type": "address"
        },
        {
          "internalType": "uint256",
          "name": "tokenId",
          "type": "uint256"
        }
      ],
      "name": "NftMarketplace__NotListed",
      "type": "error"
    },
    {
      "inputs": [],
      "name": "NftMarketplace__NotOwner",
      "type": "error"
    },
    {
      "inputs": [],
      "name": "NftMarketplace__PriceMustBeAboveZero",
      "type": "error"
    },
    {
      "inputs": [
        {
          "internalType": "address",
          "name": "nftAddress",
          "type": "address"
        },
        {
          "internalType": "uint256",
          "name": "tokenId",
          "type": "uint256"
        },
        {
          "internalType": "uint256",
          "name": "price",
          "type": "uint256"
        }
      ],
      "name": "NftMarketplace__PriceNotMet",
      "type": "error"
    },
    {
      "inputs": [],
      "name": "NftMarketplace__TheOwner",
      "type": "error"
    },
    {
      "anonymous": false,
      "inputs": [
        {
          "indexed": true,
          "internalType": "address",
          "name": "buyer",
          "type": "address"
        },
        {
          "indexed": true,
          "internalType": "address",
          "name": "nftAddress",
          "type": "address"
        },
        {
          "indexed": true,
          "internalType": "uint256",
          "name": "tokenId",
          "type": "uint256"
        },
        {
          "indexed": false,
          "internalType": "uint256",
          "name": "price",
          "type": "uint256"
        }
      ],
      "name": "ItemBought",
      "type": "event"
    },
    {
      "anonymous": false,
      "inputs": [
        {
          "indexed": true,
          "internalType": "address",
          "name": "seller",
          "type": "address"
        },
        {
          "indexed": true,
          "internalType": "address",
          "name": "nftAddress",
          "type": "address"
        },
        {
          "indexed": true,
          "internalType": "uint256",
          "name": "tokenId",
          "type": "uint256"
        },
        {
          "indexed": false,
          "internalType": "uint256",
          "name": "price",
          "type": "uint256"
        }
      ],
      "name": "ItemCanceled",
      "type": "event"
    },
    {
      "anonymous": false,
      "inputs": [
        {
          "indexed": true,
          "internalType": "address",
          "name": "seller",
          "type": "address"
        },
        {
          "indexed": true,
          "internalType": "address",
          "name": "nftAddress",
          "type": "address"
        },
        {
          "indexed": true,
          "internalType": "uint256",
          "name": "tokenId",
          "type": "uint256"
        },
        {
          "indexed": false,
          "internalType": "uint256",
          "name": "price",
          "type": "uint256"
        },
        {
          "indexed": false,
          "internalType": "string",
          "name": "action",
          "type": "string"
        }
      ],
      "name": "ItemListed",
      "type": "event"
    },
    {
      "inputs": [
        {
          "internalType": "address",
          "name": "nftAddress",
          "type": "address"
        },
        {
          "internalType": "uint256",
          "name": "tokenId",
          "type": "uint256"
        }
      ],
      "name": "buyItem",
      "outputs": [],
      "stateMutability": "payable",
      "type": "function"
    },
    {
      "inputs": [
        {
          "internalType": "address",
          "name": "nftAddress",
          "type": "address"
        },
        {
          "internalType": "uint256",
          "name": "tokenId",
          "type": "uint256"
        }
      ],
      "name": "cancelListing",
      "outputs": [],
      "stateMutability": "nonpayable",
      "type": "function"
    },
    {
      "inputs": [],
      "name": "getCompleteListing",
      "outputs": [
        {
          "components": [
            {
              "internalType": "uint256",
              "name": "price",
              "type": "uint256"
            },
            {
              "internalType": "address",
              "name": "seller",
              "type": "address"
            },
            {
              "internalType": "address",
              "name": "nftAddress",
              "type": "address"
            },
            {
              "internalType": "uint256",
              "name": "tokenId",
              "type": "uint256"
            }
          ],
          "internalType": "struct NftMarketplace.CompleteListing[]",
          "name": "",
          "type": "tuple[]"
        }
      ],
      "stateMutability": "view",
      "type": "function"
    },
    {
      "inputs": [
        {
          "internalType": "uint256",
          "name": "index",
          "type": "uint256"
        }
      ],
      "name": "getCompleteListingByIndex",
      "outputs": [
        {
          "components": [
            {
              "internalType": "uint256",
              "name": "price",
              "type": "uint256"
            },
            {
              "internalType": "address",
              "name": "seller",
              "type": "address"
            },
            {
              "internalType": "address",
              "name": "nftAddress",
              "type": "address"
            },
            {
              "internalType": "uint256",
              "name": "tokenId",
              "type": "uint256"
            }
          ],
          "internalType": "struct NftMarketplace.CompleteListing",
          "name": "",
          "type": "tuple"
        }
      ],
      "stateMutability": "view",
      "type": "function"
    },
    {
      "inputs": [],
      "name": "getCompleteListingLength",
      "outputs": [
        {
          "internalType": "uint256",
          "name": "",
          "type": "uint256"
        }
      ],
      "stateMutability": "view",
      "type": "function"
    },
    {
      "inputs": [
        {
          "internalType": "address",
          "name": "nftAddress",
          "type": "address"
        },
        {
          "internalType": "uint256",
          "name": "tokenId",
          "type": "uint256"
        }
      ],
      "name": "getListing",
      "outputs": [
        {
          "components": [
            {
              "internalType": "uint256",
              "name": "price",
              "type": "uint256"
            },
            {
              "internalType": "address",
              "name": "seller",
              "type": "address"
            }
          ],
          "internalType": "struct NftMarketplace.Listing",
          "name": "",
          "type": "tuple"
        }
      ],
      "stateMutability": "view",
      "type": "function"
    },
    {
      "inputs": [
        {
          "internalType": "address",
          "name": "seller",
          "type": "address"
        }
      ],
      "name": "getProceeds",
      "outputs": [
        {
          "internalType": "uint256",
          "name": "",
          "type": "uint256"
        }
      ],
      "stateMutability": "view",
      "type": "function"
    },
    {
      "inputs": [
        {
          "internalType": "address",
          "name": "nftAddress",
          "type": "address"
        },
        {
          "internalType": "uint256",
          "name": "tokenId",
          "type": "uint256"
        },
        {
          "internalType": "uint256",
          "name": "price",
          "type": "uint256"
        }
      ],
      "name": "listItem",
      "outputs": [],
      "stateMutability": "nonpayable",
      "type": "function"
    },
    {
      "inputs": [
        {
          "internalType": "address",
          "name": "nftAddress",
          "type": "address"
        },
        {
          "internalType": "uint256",
          "name": "tokenId",
          "type": "uint256"
        }
      ],
      "name": "removeCompleteListing",
      "outputs": [],
      "stateMutability": "nonpayable",
      "type": "function"
    },
    {
      "inputs": [
        {
          "internalType": "address",
          "name": "nftAddress",
          "type": "address"
        },
        {
          "internalType": "uint256",
          "name": "tokenId",
          "type": "uint256"
        },
        {
          "internalType": "uint256",
          "name": "newPrice",
          "type": "uint256"
        }
      ],
      "name": "updateCompleteListing",
      "outputs": [],
      "stateMutability": "nonpayable",
      "type": "function"
    },
    {
      "inputs": [
        {
          "internalType": "address",
          "name": "nftAddress",
          "type": "address"
        },
        {
          "internalType": "uint256",
          "name": "tokenId",
          "type": "uint256"
        },
        {
          "internalType": "uint256",
          "name": "newPrice",
          "type": "uint256"
        }
      ],
      "name": "updateListing",
      "outputs": [],
      "stateMutability": "nonpayable",
      "type": "function"
    },
    {
      "inputs": [],
      "name": "withdrawProceeds",
      "outputs": [],
      "stateMutability": "nonpayable",
      "type": "function"
    }
  ],
  "transactionHash": "0x018e1bf84279442b986b9eb72c2a117046af24484d9e8330e5e1ebdeb603328c",
  "args": [],
  "numDeployments": 1,
  "solcInputHash": "453701bdd715ad29c91c7e0dd8ef2d0e",
  "bytecode": "0x608060405234801561001057600080fd5b506001600081905550612acd806100286000396000f3fe6080604052600436106100a75760003560e01c80638b0ff776116100645780638b0ff776146101cc5780639038e693146102095780639f37092a14610220578063a8a8f8c01461023c578063b2ddee0614610267578063f772adf114610290576100a7565b806311040e6d146100ac57806330cfeda9146100d55780633d5d7b6d146101125780635207ec7d1461013d57806388700d1c1461016657806389bfd38f146101a3575b600080fd5b3480156100b857600080fd5b506100d360048036038101906100ce9190612317565b6102b9565b005b3480156100e157600080fd5b506100fc60048036038101906100f79190612357565b610623565b6040516101099190612393565b60405180910390f35b34801561011e57600080fd5b5061012761066c565b60405161013491906124d0565b60405180910390f35b34801561014957600080fd5b50610164600480360381019061015f91906124f2565b61078b565b005b34801561017257600080fd5b5061018d60048036038101906101889190612317565b61091d565b60405161019a9190612574565b60405180910390f35b3480156101af57600080fd5b506101ca60048036038101906101c591906124f2565b6109e8565b005b3480156101d857600080fd5b506101f360048036038101906101ee919061258f565b611086565b6040516102009190612611565b60405180910390f35b34801561021557600080fd5b5061021e611182565b005b61023a60048036038101906102359190612317565b6112f5565b005b34801561024857600080fd5b5061025161192c565b60405161025e9190612393565b60405180910390f35b34801561027357600080fd5b5061028e60048036038101906102899190612317565b611939565b005b34801561029c57600080fd5b506102b760048036038101906102b291906124f2565b611d92565b005b60005b60018054905081101561061d576000600182815481106102df576102de61262c565b5b9060005260206000209060040201604051806080016040529081600082015481526020016001820160009054906101000a900473ffffffffffffffffffffffffffffffffffffffff1673ffffffffffffffffffffffffffffffffffffffff1673ffffffffffffffffffffffffffffffffffffffff1681526020016002820160009054906101000a900473ffffffffffffffffffffffffffffffffffffffff1673ffffffffffffffffffffffffffffffffffffffff1673ffffffffffffffffffffffffffffffffffffffff16815260200160038201548152505090508373ffffffffffffffffffffffffffffffffffffffff16816040015173ffffffffffffffffffffffffffffffffffffffff161480156103fc5750828160600151145b1561060957600180549050821061041457505061061f565b60008290505b6001808054905061042b919061268a565b811015610579576001808261044091906126be565b815481106104515761045061262c565b5b9060005260206000209060040201600182815481106104735761047261262c565b5b9060005260206000209060040201600082015481600001556001820160009054906101000a900473ffffffffffffffffffffffffffffffffffffffff168160010160006101000a81548173ffffffffffffffffffffffffffffffffffffffff021916908373ffffffffffffffffffffffffffffffffffffffff1602179055506002820160009054906101000a900473ffffffffffffffffffffffffffffffffffffffff168160020160006101000a81548173ffffffffffffffffffffffffffffffffffffffff021916908373ffffffffffffffffffffffffffffffffffffffff16021790555060038201548160030155905050808061057190612714565b91505061041a565b50600180548061058c5761058b61275d565b5b60019003818190600052602060002090600402016000808201600090556001820160006101000a81549073ffffffffffffffffffffffffffffffffffffffff02191690556002820160006101000a81549073ffffffffffffffffffffffffffffffffffffffff02191690556003820160009055505090555061061d565b50808061061590612714565b9150506102bc565b505b5050565b6000600360008373ffffffffffffffffffffffffffffffffffffffff1673ffffffffffffffffffffffffffffffffffffffff168152602001908152602001600020549050919050565b60606001805480602002602001604051908101604052809291908181526020016000905b828210156107825783829060005260206000209060040201604051806080016040529081600082015481526020016001820160009054906101000a900473ffffffffffffffffffffffffffffffffffffffff1673ffffffffffffffffffffffffffffffffffffffff1673ffffffffffffffffffffffffffffffffffffffff1681526020016002820160009054906101000a900473ffffffffffffffffffffffffffffffffffffffff1673ffffffffffffffffffffffffffffffffffffffff1673ffffffffffffffffffffffffffffffffffffffff16815260200160038201548152505081526020019060010190610690565b50505050905090565b60005b600180549050811015610917576000600182815481106107b1576107b061262c565b5b9060005260206000209060040201604051806080016040529081600082015481526020016001820160009054906101000a900473ffffffffffffffffffffffffffffffffffffffff1673ffffffffffffffffffffffffffffffffffffffff1673ffffffffffffffffffffffffffffffffffffffff1681526020016002820160009054906101000a900473ffffffffffffffffffffffffffffffffffffffff1673ffffffffffffffffffffffffffffffffffffffff1673ffffffffffffffffffffffffffffffffffffffff16815260200160038201548152505090508473ffffffffffffffffffffffffffffffffffffffff16816040015173ffffffffffffffffffffffffffffffffffffffff161480156108ce5750838160600151145b156109035782600183815481106108e8576108e761262c565b5b90600052602060002090600402016000018190555050610917565b50808061090f90612714565b91505061078e565b50505050565b6109256121fa565b600260008473ffffffffffffffffffffffffffffffffffffffff1673ffffffffffffffffffffffffffffffffffffffff1681526020019081526020016000206000838152602001908152602001600020604051806040016040529081600082015481526020016001820160009054906101000a900473ffffffffffffffffffffffffffffffffffffffff1673ffffffffffffffffffffffffffffffffffffffff1673ffffffffffffffffffffffffffffffffffffffff1681525050905092915050565b8282600080600260008573ffffffffffffffffffffffffffffffffffffffff1673ffffffffffffffffffffffffffffffffffffffff1681526020019081526020016000206000848152602001908152602001600020604051806040016040529081600082015481526020016001820160009054906101000a900473ffffffffffffffffffffffffffffffffffffffff1673ffffffffffffffffffffffffffffffffffffffff1673ffffffffffffffffffffffffffffffffffffffff1681525050905060008160000151118015610ac2575060001515821515145b15610b065783836040517fc2f0d709000000000000000000000000000000000000000000000000000000008152600401610afd92919061279b565b60405180910390fd5b6000816000015111158015610b1f575060011515821515145b15610b635783836040517f6d350f22000000000000000000000000000000000000000000000000000000008152600401610b5a92919061279b565b60405180910390fd5b8686336001600084905060008173ffffffffffffffffffffffffffffffffffffffff16636352211e866040518263ffffffff1660e01b8152600401610ba89190612393565b60206040518083038186803b158015610bc057600080fd5b505afa158015610bd4573d6000803e3d6000fd5b505050506040513d601f19601f82011682018060405250810190610bf891906127d9565b90508373ffffffffffffffffffffffffffffffffffffffff168173ffffffffffffffffffffffffffffffffffffffff1614158015610c3a575060011515831515145b15610c71576040517f94953b6000000000000000000000000000000000000000000000000000000000815260040160405180910390fd5b8373ffffffffffffffffffffffffffffffffffffffff168173ffffffffffffffffffffffffffffffffffffffff16148015610cb0575060001515831515145b15610ce7576040517f03a2647e00000000000000000000000000000000000000000000000000000000815260040160405180910390fd5b60008b11610d21576040517f096d7ecf00000000000000000000000000000000000000000000000000000000815260040160405180910390fd5b60008d90503073ffffffffffffffffffffffffffffffffffffffff168173ffffffffffffffffffffffffffffffffffffffff1663081812fc8f6040518263ffffffff1660e01b8152600401610d769190612393565b60206040518083038186803b158015610d8e57600080fd5b505afa158015610da2573d6000803e3d6000fd5b505050506040513d601f19601f82011682018060405250810190610dc691906127d9565b73ffffffffffffffffffffffffffffffffffffffff1614610e13576040517f13e7d28d00000000000000000000000000000000000000000000000000000000815260040160405180910390fd5b60008e905060008e905060008e905060405180604001604052808281526020013373ffffffffffffffffffffffffffffffffffffffff16815250600260008573ffffffffffffffffffffffffffffffffffffffff1673ffffffffffffffffffffffffffffffffffffffff16815260200190815260200160002060008481526020019081526020016000206000820151816000015560208201518160010160006101000a81548173ffffffffffffffffffffffffffffffffffffffff021916908373ffffffffffffffffffffffffffffffffffffffff160217905550905050600160405180608001604052808381526020013373ffffffffffffffffffffffffffffffffffffffff1681526020018573ffffffffffffffffffffffffffffffffffffffff1681526020018481525090806001815401808255809150506001900390600052602060002090600402016000909190919091506000820151816000015560208201518160010160006101000a81548173ffffffffffffffffffffffffffffffffffffffff021916908373ffffffffffffffffffffffffffffffffffffffff16021790555060408201518160020160006101000a81548173ffffffffffffffffffffffffffffffffffffffff021916908373ffffffffffffffffffffffffffffffffffffffff160217905550606082015181600301555050818373ffffffffffffffffffffffffffffffffffffffff163373ffffffffffffffffffffffffffffffffffffffff167fa24d7f57961a475163f4ded9857498db096cdedf2e504991e3abc49ba85800a38460405161106b9190612863565b60405180910390a45050505050505050505050505050505050565b61108e61222a565b600182815481106110a2576110a161262c565b5b9060005260206000209060040201604051806080016040529081600082015481526020016001820160009054906101000a900473ffffffffffffffffffffffffffffffffffffffff1673ffffffffffffffffffffffffffffffffffffffff1673ffffffffffffffffffffffffffffffffffffffff1681526020016002820160009054906101000a900473ffffffffffffffffffffffffffffffffffffffff1673ffffffffffffffffffffffffffffffffffffffff1673ffffffffffffffffffffffffffffffffffffffff1681526020016003820154815250509050919050565b6000600360003373ffffffffffffffffffffffffffffffffffffffff1673ffffffffffffffffffffffffffffffffffffffff16815260200190815260200160002054905060008111611200576040517f668a7c4200000000000000000000000000000000000000000000000000000000815260040160405180910390fd5b6000600360003373ffffffffffffffffffffffffffffffffffffffff1673ffffffffffffffffffffffffffffffffffffffff1681526020019081526020016000208190555060003373ffffffffffffffffffffffffffffffffffffffff168260405161126b906128c2565b60006040518083038185875af1925050503d80600081146112a8576040519150601f19603f3d011682016040523d82523d6000602084013e6112ad565b606091505b50509050806112f1576040517f08c379a00000000000000000000000000000000000000000000000000000000081526004016112e890612923565b60405180910390fd5b5050565b6002600054141561133b576040517f08c379a00000000000000000000000000000000000000000000000000000000081526004016113329061298f565b60405180910390fd5b6002600081905550818160016000600260008573ffffffffffffffffffffffffffffffffffffffff1673ffffffffffffffffffffffffffffffffffffffff1681526020019081526020016000206000848152602001908152602001600020604051806040016040529081600082015481526020016001820160009054906101000a900473ffffffffffffffffffffffffffffffffffffffff1673ffffffffffffffffffffffffffffffffffffffff1673ffffffffffffffffffffffffffffffffffffffff168152505090506000816000015111801561141e575060001515821515145b156114625783836040517fc2f0d70900000000000000000000000000000000000000000000000000000000815260040161145992919061279b565b60405180910390fd5b600081600001511115801561147b575060011515821515145b156114bf5783836040517f6d350f220000000000000000000000000000000000000000000000000000000081526004016114b692919061279b565b60405180910390fd5b85853360008084905060008173ffffffffffffffffffffffffffffffffffffffff16636352211e866040518263ffffffff1660e01b81526004016115039190612393565b60206040518083038186803b15801561151b57600080fd5b505afa15801561152f573d6000803e3d6000fd5b505050506040513d601f19601f8201168201806040525081019061155391906127d9565b90508373ffffffffffffffffffffffffffffffffffffffff168173ffffffffffffffffffffffffffffffffffffffff1614158015611595575060011515831515145b156115cc576040517f94953b6000000000000000000000000000000000000000000000000000000000815260040160405180910390fd5b8373ffffffffffffffffffffffffffffffffffffffff168173ffffffffffffffffffffffffffffffffffffffff1614801561160b575060001515831515145b15611642576040517f03a2647e00000000000000000000000000000000000000000000000000000000815260040160405180910390fd5b6000600260008e73ffffffffffffffffffffffffffffffffffffffff1673ffffffffffffffffffffffffffffffffffffffff16815260200190815260200160002060008d8152602001908152602001600020604051806040016040529081600082015481526020016001820160009054906101000a900473ffffffffffffffffffffffffffffffffffffffff1673ffffffffffffffffffffffffffffffffffffffff1673ffffffffffffffffffffffffffffffffffffffff168152505090508060000151341015611752578c8c82600001516040517f817ce9f1000000000000000000000000000000000000000000000000000000008152600401611749939291906129af565b60405180910390fd5b3460036000836020015173ffffffffffffffffffffffffffffffffffffffff1673ffffffffffffffffffffffffffffffffffffffff16815260200190815260200160002060008282546117a591906126be565b92505081905550600260008e73ffffffffffffffffffffffffffffffffffffffff1673ffffffffffffffffffffffffffffffffffffffff16815260200190815260200160002060008d81526020019081526020016000206000808201600090556001820160006101000a81549073ffffffffffffffffffffffffffffffffffffffff021916905550506118388d8d6102b9565b8c73ffffffffffffffffffffffffffffffffffffffff166342842e0e8260200151338f6040518463ffffffff1660e01b8152600401611879939291906129e6565b600060405180830381600087803b15801561189357600080fd5b505af11580156118a7573d6000803e3d6000fd5b505050508b8d73ffffffffffffffffffffffffffffffffffffffff163373ffffffffffffffffffffffffffffffffffffffff167f263223b1dd81e51054a4e6f791d45a4a1ddb4aadcd93a2dfd892615c3fdac187846000015160405161190d9190612393565b60405180910390a4505050505050505050505060016000819055505050565b6000600180549050905090565b818160016000600260008573ffffffffffffffffffffffffffffffffffffffff1673ffffffffffffffffffffffffffffffffffffffff1681526020019081526020016000206000848152602001908152602001600020604051806040016040529081600082015481526020016001820160009054906101000a900473ffffffffffffffffffffffffffffffffffffffff1673ffffffffffffffffffffffffffffffffffffffff1673ffffffffffffffffffffffffffffffffffffffff1681525050905060008160000151118015611a14575060001515821515145b15611a585783836040517fc2f0d709000000000000000000000000000000000000000000000000000000008152600401611a4f92919061279b565b60405180910390fd5b6000816000015111158015611a71575060011515821515145b15611ab55783836040517f6d350f22000000000000000000000000000000000000000000000000000000008152600401611aac92919061279b565b60405180910390fd5b8585336001600084905060008173ffffffffffffffffffffffffffffffffffffffff16636352211e866040518263ffffffff1660e01b8152600401611afa9190612393565b60206040518083038186803b158015611b1257600080fd5b505afa158015611b26573d6000803e3d6000fd5b505050506040513d601f19601f82011682018060405250810190611b4a91906127d9565b90508373ffffffffffffffffffffffffffffffffffffffff168173ffffffffffffffffffffffffffffffffffffffff1614158015611b8c575060011515831515145b15611bc3576040517f94953b6000000000000000000000000000000000000000000000000000000000815260040160405180910390fd5b8373ffffffffffffffffffffffffffffffffffffffff168173ffffffffffffffffffffffffffffffffffffffff16148015611c02575060001515831515145b15611c39576040517f03a2647e00000000000000000000000000000000000000000000000000000000815260040160405180910390fd5b6000600260008e73ffffffffffffffffffffffffffffffffffffffff1673ffffffffffffffffffffffffffffffffffffffff16815260200190815260200160002060008d8152602001908152602001600020600001549050600260008e73ffffffffffffffffffffffffffffffffffffffff1673ffffffffffffffffffffffffffffffffffffffff16815260200190815260200160002060008d81526020019081526020016000206000808201600090556001820160006101000a81549073ffffffffffffffffffffffffffffffffffffffff02191690555050611d1d8d8d6102b9565b8b8d73ffffffffffffffffffffffffffffffffffffffff163373ffffffffffffffffffffffffffffffffffffffff167f74114e1af8d4d398357d12468ae7b6a7bf4144bf482db553622d275b6be6f19184604051611d7b9190612393565b60405180910390a450505050505050505050505050565b60026000541415611dd8576040517f08c379a0000000000000000000000000000000000000000000000000000000008152600401611dcf9061298f565b60405180910390fd5b6002600081905550828260016000600260008573ffffffffffffffffffffffffffffffffffffffff1673ffffffffffffffffffffffffffffffffffffffff1681526020019081526020016000206000848152602001908152602001600020604051806040016040529081600082015481526020016001820160009054906101000a900473ffffffffffffffffffffffffffffffffffffffff1673ffffffffffffffffffffffffffffffffffffffff1673ffffffffffffffffffffffffffffffffffffffff1681525050905060008160000151118015611ebb575060001515821515145b15611eff5783836040517fc2f0d709000000000000000000000000000000000000000000000000000000008152600401611ef692919061279b565b60405180910390fd5b6000816000015111158015611f18575060011515821515145b15611f5c5783836040517f6d350f22000000000000000000000000000000000000000000000000000000008152600401611f5392919061279b565b60405180910390fd5b8686336001600084905060008173ffffffffffffffffffffffffffffffffffffffff16636352211e866040518263ffffffff1660e01b8152600401611fa19190612393565b60206040518083038186803b158015611fb957600080fd5b505afa158015611fcd573d6000803e3d6000fd5b505050506040513d601f19601f82011682018060405250810190611ff191906127d9565b90508373ffffffffffffffffffffffffffffffffffffffff168173ffffffffffffffffffffffffffffffffffffffff1614158015612033575060011515831515145b1561206a576040517f94953b6000000000000000000000000000000000000000000000000000000000815260040160405180910390fd5b8373ffffffffffffffffffffffffffffffffffffffff168173ffffffffffffffffffffffffffffffffffffffff161480156120a9575060001515831515145b156120e0576040517f03a2647e00000000000000000000000000000000000000000000000000000000815260040160405180910390fd5b60008b1161211a576040517f096d7ecf00000000000000000000000000000000000000000000000000000000815260040160405180910390fd5b8a600260008f73ffffffffffffffffffffffffffffffffffffffff1673ffffffffffffffffffffffffffffffffffffffff16815260200190815260200160002060008e81526020019081526020016000206000018190555061217d8d8d8d61078b565b8b8d73ffffffffffffffffffffffffffffffffffffffff163373ffffffffffffffffffffffffffffffffffffffff167fa24d7f57961a475163f4ded9857498db096cdedf2e504991e3abc49ba85800a38e6040516121db9190612a69565b60405180910390a4505050505050505050506001600081905550505050565b604051806040016040528060008152602001600073ffffffffffffffffffffffffffffffffffffffff1681525090565b604051806080016040528060008152602001600073ffffffffffffffffffffffffffffffffffffffff168152602001600073ffffffffffffffffffffffffffffffffffffffff168152602001600081525090565b600080fd5b600073ffffffffffffffffffffffffffffffffffffffff82169050919050565b60006122ae82612283565b9050919050565b6122be816122a3565b81146122c957600080fd5b50565b6000813590506122db816122b5565b92915050565b6000819050919050565b6122f4816122e1565b81146122ff57600080fd5b50565b600081359050612311816122eb565b92915050565b6000806040838503121561232e5761232d61227e565b5b600061233c858286016122cc565b925050602061234d85828601612302565b9150509250929050565b60006020828403121561236d5761236c61227e565b5b600061237b848285016122cc565b91505092915050565b61238d816122e1565b82525050565b60006020820190506123a86000830184612384565b92915050565b600081519050919050565b600082825260208201905092915050565b6000819050602082019050919050565b6123e3816122e1565b82525050565b6123f2816122a3565b82525050565b60808201600082015161240e60008501826123da565b50602082015161242160208501826123e9565b50604082015161243460408501826123e9565b50606082015161244760608501826123da565b50505050565b600061245983836123f8565b60808301905092915050565b6000602082019050919050565b600061247d826123ae565b61248781856123b9565b9350612492836123ca565b8060005b838110156124c35781516124aa888261244d565b97506124b583612465565b925050600181019050612496565b5085935050505092915050565b600060208201905081810360008301526124ea8184612472565b905092915050565b60008060006060848603121561250b5761250a61227e565b5b6000612519868287016122cc565b935050602061252a86828701612302565b925050604061253b86828701612302565b9150509250925092565b60408201600082015161255b60008501826123da565b50602082015161256e60208501826123e9565b50505050565b60006040820190506125896000830184612545565b92915050565b6000602082840312156125a5576125a461227e565b5b60006125b384828501612302565b91505092915050565b6080820160008201516125d260008501826123da565b5060208201516125e560208501826123e9565b5060408201516125f860408501826123e9565b50606082015161260b60608501826123da565b50505050565b600060808201905061262660008301846125bc565b92915050565b7f4e487b7100000000000000000000000000000000000000000000000000000000600052603260045260246000fd5b7f4e487b7100000000000000000000000000000000000000000000000000000000600052601160045260246000fd5b6000612695826122e1565b91506126a0836122e1565b9250828210156126b3576126b261265b565b5b828203905092915050565b60006126c9826122e1565b91506126d4836122e1565b9250827fffffffffffffffffffffffffffffffffffffffffffffffffffffffffffffffff038211156127095761270861265b565b5b828201905092915050565b600061271f826122e1565b91507fffffffffffffffffffffffffffffffffffffffffffffffffffffffffffffffff8214156127525761275161265b565b5b600182019050919050565b7f4e487b7100000000000000000000000000000000000000000000000000000000600052603160045260246000fd5b612795816122a3565b82525050565b60006040820190506127b0600083018561278c565b6127bd6020830184612384565b9392505050565b6000815190506127d3816122b5565b92915050565b6000602082840312156127ef576127ee61227e565b5b60006127fd848285016127c4565b91505092915050565b600082825260208201905092915050565b7f6c6973745f6974656d0000000000000000000000000000000000000000000000600082015250565b600061284d600983612806565b915061285882612817565b602082019050919050565b60006040820190506128786000830184612384565b818103602083015261288981612840565b905092915050565b600081905092915050565b50565b60006128ac600083612891565b91506128b78261289c565b600082019050919050565b60006128cd8261289f565b9150819050919050565b7f5472616e73666572206661696c65642100000000000000000000000000000000600082015250565b600061290d601083612806565b9150612918826128d7565b602082019050919050565b6000602082019050818103600083015261293c81612900565b9050919050565b7f5265656e7472616e637947756172643a207265656e7472616e742063616c6c00600082015250565b6000612979601f83612806565b915061298482612943565b602082019050919050565b600060208201905081810360008301526129a88161296c565b9050919050565b60006060820190506129c4600083018661278c565b6129d16020830185612384565b6129de6040830184612384565b949350505050565b60006060820190506129fb600083018661278c565b612a08602083018561278c565b612a156040830184612384565b949350505050565b7f7570646174655f70726963650000000000000000000000000000000000000000600082015250565b6000612a53600c83612806565b9150612a5e82612a1d565b602082019050919050565b6000604082019050612a7e6000830184612384565b8181036020830152612a8f81612a46565b90509291505056fea2646970667358221220e7d8957e162b3fcc2502e49fb18fb91d0c65c7daeda47a28cb1f4722b0a2b33464736f6c63430008090033",
  "devdoc": {
    "kind": "dev",
    "methods": {},
    "version": 1
  },
  "userdoc": {
    "kind": "user",
    "methods": {},
    "version": 1
  },
  "storageLayout": {
    "storage": [
      {
        "astId": 10,
        "contract": "contracts/NftMarketplace.sol:NftMarketplace",
        "label": "_status",
        "offset": 0,
        "slot": "0",
        "type": "t_uint256"
      },
      {
        "astId": 1700,
        "contract": "contracts/NftMarketplace.sol:NftMarketplace",
        "label": "s_completeListing",
        "offset": 0,
        "slot": "1",
        "type": "t_array(t_struct(CompleteListing)1696_storage)dyn_storage"
      },
      {
        "astId": 1707,
        "contract": "contracts/NftMarketplace.sol:NftMarketplace",
        "label": "s_listings",
        "offset": 0,
        "slot": "2",
        "type": "t_mapping(t_address,t_mapping(t_uint256,t_struct(Listing)1687_storage))"
      },
      {
        "astId": 1711,
        "contract": "contracts/NftMarketplace.sol:NftMarketplace",
        "label": "s_proceeds",
        "offset": 0,
        "slot": "3",
        "type": "t_mapping(t_address,t_uint256)"
      }
    ],
    "types": {
      "t_address": {
        "encoding": "inplace",
        "label": "address",
        "numberOfBytes": "20"
      },
      "t_array(t_struct(CompleteListing)1696_storage)dyn_storage": {
        "base": "t_struct(CompleteListing)1696_storage",
        "encoding": "dynamic_array",
        "label": "struct NftMarketplace.CompleteListing[]",
        "numberOfBytes": "32"
      },
      "t_mapping(t_address,t_mapping(t_uint256,t_struct(Listing)1687_storage))": {
        "encoding": "mapping",
        "key": "t_address",
        "label": "mapping(address => mapping(uint256 => struct NftMarketplace.Listing))",
        "numberOfBytes": "32",
        "value": "t_mapping(t_uint256,t_struct(Listing)1687_storage)"
      },
      "t_mapping(t_address,t_uint256)": {
        "encoding": "mapping",
        "key": "t_address",
        "label": "mapping(address => uint256)",
        "numberOfBytes": "32",
        "value": "t_uint256"
      },
      "t_mapping(t_uint256,t_struct(Listing)1687_storage)": {
        "encoding": "mapping",
        "key": "t_uint256",
        "label": "mapping(uint256 => struct NftMarketplace.Listing)",
        "numberOfBytes": "32",
        "value": "t_struct(Listing)1687_storage"
      },
      "t_struct(CompleteListing)1696_storage": {
        "encoding": "inplace",
        "label": "struct NftMarketplace.CompleteListing",
        "members": [
          {
            "astId": 1689,
            "contract": "contracts/NftMarketplace.sol:NftMarketplace",
            "label": "price",
            "offset": 0,
            "slot": "0",
            "type": "t_uint256"
          },
          {
            "astId": 1691,
            "contract": "contracts/NftMarketplace.sol:NftMarketplace",
            "label": "seller",
            "offset": 0,
            "slot": "1",
            "type": "t_address"
          },
          {
            "astId": 1693,
            "contract": "contracts/NftMarketplace.sol:NftMarketplace",
            "label": "nftAddress",
            "offset": 0,
            "slot": "2",
            "type": "t_address"
          },
          {
            "astId": 1695,
            "contract": "contracts/NftMarketplace.sol:NftMarketplace",
            "label": "tokenId",
            "offset": 0,
            "slot": "3",
            "type": "t_uint256"
          }
        ],
        "numberOfBytes": "128"
      },
      "t_struct(Listing)1687_storage": {
        "encoding": "inplace",
        "label": "struct NftMarketplace.Listing",
        "members": [
          {
            "astId": 1684,
            "contract": "contracts/NftMarketplace.sol:NftMarketplace",
            "label": "price",
            "offset": 0,
            "slot": "0",
            "type": "t_uint256"
          },
          {
            "astId": 1686,
            "contract": "contracts/NftMarketplace.sol:NftMarketplace",
            "label": "seller",
            "offset": 0,
            "slot": "1",
            "type": "t_address"
          }
        ],
        "numberOfBytes": "64"
      },
      "t_uint256": {
        "encoding": "inplace",
        "label": "uint256",
        "numberOfBytes": "32"
      }
    }
  }
}